{
  "contractName": "Adoption",
  "abi": [
    {
      "constant": true,
      "inputs": [
        {
          "name": "",
          "type": "uint256"
        }
      ],
      "name": "adopters",
      "outputs": [
        {
          "name": "",
          "type": "address"
        }
      ],
      "payable": false,
      "stateMutability": "view",
      "type": "function"
    },
    {
      "constant": true,
      "inputs": [],
      "name": "dealer",
      "outputs": [
        {
          "name": "",
          "type": "address"
        }
      ],
      "payable": false,
      "stateMutability": "view",
      "type": "function"
    },
    {
      "constant": true,
      "inputs": [],
      "name": "petPrice",
      "outputs": [
        {
          "name": "",
          "type": "uint256"
        }
      ],
      "payable": false,
      "stateMutability": "view",
      "type": "function"
    },
    {
      "constant": false,
      "inputs": [
        {
          "name": "petId",
          "type": "uint256"
        }
      ],
      "name": "adopt",
      "outputs": [
        {
          "name": "",
          "type": "uint256"
        }
      ],
      "payable": true,
      "stateMutability": "payable",
      "type": "function"
    },
    {
      "constant": true,
      "inputs": [],
      "name": "getAdopters",
      "outputs": [
        {
          "name": "",
          "type": "address[16]"
        }
      ],
      "payable": false,
      "stateMutability": "view",
      "type": "function"
    }
  ],
  "bytecode": "0x60806040526802b5e3af16b1880000601055733ce40352eea107917704fb2f769e96b26c68bc6f601160006101000a81548173ffffffffffffffffffffffffffffffffffffffff021916908373ffffffffffffffffffffffffffffffffffffffff16021790555034801561007257600080fd5b5061044d806100826000396000f3fe60806040526004361061004a5760003560e01c80633de4eb171461004f57806343ae80d3146100a25780638588b2c51461011d5780639de2ee211461015f578063bd42115f146101b6575b600080fd5b34801561005b57600080fd5b506100646101e1565b6040518082601060200280838360005b8381101561008f578082015181840152602081019050610074565b5050505090500191505060405180910390f35b3480156100ae57600080fd5b506100db600480360360208110156100c557600080fd5b8101908080359060200190929190505050610262565b604051808273ffffffffffffffffffffffffffffffffffffffff1673ffffffffffffffffffffffffffffffffffffffff16815260200191505060405180910390f35b6101496004803603602081101561013357600080fd5b8101908080359060200190929190505050610295565b6040518082815260200191505060405180910390f35b34801561016b57600080fd5b506101746103d2565b604051808273ffffffffffffffffffffffffffffffffffffffff1673ffffffffffffffffffffffffffffffffffffffff16815260200191505060405180910390f35b3480156101c257600080fd5b506101cb6103f8565b6040518082815260200191505060405180910390f35b6101e96103fe565b6000601080602002604051908101604052809291908260108015610258576020028201915b8160009054906101000a900473ffffffffffffffffffffffffffffffffffffffff1673ffffffffffffffffffffffffffffffffffffffff168152602001906001019080831161020e575b5050505050905090565b6000816010811061026f57fe5b016000915054906101000a900473ffffffffffffffffffffffffffffffffffffffff1681565b60008082101580156102a85750600f8211155b15610325576010543414610324576040517f08c379a00000000000000000000000000000000000000000000000000000000081526004018080602001828103825260118152602001807f5052494345204449444e54204d4154434800000000000000000000000000000081525060200191505060405180910390fd5b5b601160009054906101000a900473ffffffffffffffffffffffffffffffffffffffff1673ffffffffffffffffffffffffffffffffffffffff166108fc349081150290604051600060405180830381858888f1935050505050336000836010811061038b57fe5b0160006101000a81548173ffffffffffffffffffffffffffffffffffffffff021916908373ffffffffffffffffffffffffffffffffffffffff160217905550819050919050565b601160009054906101000a900473ffffffffffffffffffffffffffffffffffffffff1681565b60105481565b60405180610200016040528060109060208202803883398082019150509050509056fea165627a7a72305820dfa16c9ad95950d467868b5f5121ae898b1e02193d60f4208eda472f71860c250029",
  "source": "pragma solidity >=0.4.21 <0.7.0;\n\n\ncontract Adoption{\n\n    address[16] public adopters;\n    uint public petPrice = 50000000000000000000;\n    address payable public dealer = 0x3ce40352eEa107917704Fb2F769e96B26c68bc6f;\n\n    function adopt(uint petId) public payable returns (uint){\n        if(petId >= 0 && petId<=15)\n        require(msg.value == petPrice, \"PRICE DIDNT MATCH\");\n        dealer.send(msg.value);\n        adopters[petId] = msg.sender;\n        return petId;\n    }\n\n    function getAdopters() public view returns (address[16] memory){\n        return adopters;\n    }\n}\n",
  "sourcePath": "F:/ps2/contracts/Adoption.sol",
  "compiler": {
    "name": "solc",
    "version": "0.5.8+commit.23d335f2.Emscripten.clang"
  },
  "schemaVersion": "3.0.16",
  "updatedAt": "2020-07-04T17:40:02.348Z",
  "devdoc": {
    "methods": {}
  },
  "userdoc": {
    "methods": {}
  }
}